{
  "contractName": "swapverse",
  "abi": [
    {
      "inputs": [],
      "stateMutability": "nonpayable",
      "type": "constructor"
    },
    {
      "anonymous": false,
      "inputs": [
        {
          "indexed": true,
          "internalType": "address",
          "name": "owner",
          "type": "address"
        },
        {
          "indexed": true,
          "internalType": "address",
          "name": "spender",
          "type": "address"
        },
        {
          "indexed": false,
          "internalType": "uint256",
          "name": "value",
          "type": "uint256"
        }
      ],
      "name": "Approval",
      "type": "event"
    },
    {
      "anonymous": false,
      "inputs": [
        {
          "indexed": true,
          "internalType": "address",
          "name": "previousOwner",
          "type": "address"
        },
        {
          "indexed": true,
          "internalType": "address",
          "name": "newOwner",
          "type": "address"
        }
      ],
      "name": "OwnershipTransferred",
      "type": "event"
    },
    {
      "anonymous": false,
      "inputs": [
        {
          "indexed": true,
          "internalType": "address",
          "name": "from",
          "type": "address"
        },
        {
          "indexed": true,
          "internalType": "address",
          "name": "to",
          "type": "address"
        },
        {
          "indexed": false,
          "internalType": "uint256",
          "name": "value",
          "type": "uint256"
        }
      ],
      "name": "Transfer",
      "type": "event"
    },
    {
      "inputs": [],
      "name": "_burnFee",
      "outputs": [
        {
          "internalType": "uint256",
          "name": "",
          "type": "uint256"
        }
      ],
      "stateMutability": "view",
      "type": "function"
    },
    {
      "inputs": [],
      "name": "_marketingFee",
      "outputs": [
        {
          "internalType": "uint256",
          "name": "",
          "type": "uint256"
        }
      ],
      "stateMutability": "view",
      "type": "function"
    },
    {
      "inputs": [],
      "name": "_tFee",
      "outputs": [
        {
          "internalType": "uint256",
          "name": "",
          "type": "uint256"
        }
      ],
      "stateMutability": "view",
      "type": "function"
    },
    {
      "inputs": [],
      "name": "_tFeeTotal",
      "outputs": [
        {
          "internalType": "uint256",
          "name": "",
          "type": "uint256"
        }
      ],
      "stateMutability": "view",
      "type": "function"
    },
    {
      "inputs": [],
      "name": "getTime",
      "outputs": [
        {
          "internalType": "uint256",
          "name": "",
          "type": "uint256"
        }
      ],
      "stateMutability": "view",
      "type": "function"
    },
    {
      "inputs": [],
      "name": "getUnlockTime",
      "outputs": [
        {
          "internalType": "uint256",
          "name": "",
          "type": "uint256"
        }
      ],
      "stateMutability": "view",
      "type": "function"
    },
    {
      "inputs": [
        {
          "internalType": "uint256",
          "name": "time",
          "type": "uint256"
        }
      ],
      "name": "lock",
      "outputs": [],
      "stateMutability": "nonpayable",
      "type": "function"
    },
    {
      "inputs": [],
      "name": "marketingFeeReceiver",
      "outputs": [
        {
          "internalType": "address",
          "name": "",
          "type": "address"
        }
      ],
      "stateMutability": "view",
      "type": "function"
    },
    {
      "inputs": [],
      "name": "maxTxAmount",
      "outputs": [
        {
          "internalType": "uint256",
          "name": "",
          "type": "uint256"
        }
      ],
      "stateMutability": "view",
      "type": "function"
    },
    {
      "inputs": [],
      "name": "maxWalletBalance",
      "outputs": [
        {
          "internalType": "uint256",
          "name": "",
          "type": "uint256"
        }
      ],
      "stateMutability": "view",
      "type": "function"
    },
    {
      "inputs": [],
      "name": "owner",
      "outputs": [
        {
          "internalType": "address",
          "name": "",
          "type": "address"
        }
      ],
      "stateMutability": "view",
      "type": "function"
    },
    {
      "inputs": [],
      "name": "renounceOwnership",
      "outputs": [],
      "stateMutability": "nonpayable",
      "type": "function"
    },
    {
      "inputs": [
        {
          "internalType": "address",
          "name": "newOwner",
          "type": "address"
        }
      ],
      "name": "transferOwnership",
      "outputs": [],
      "stateMutability": "nonpayable",
      "type": "function"
    },
    {
      "inputs": [],
      "name": "uniswapV2Pair",
      "outputs": [
        {
          "internalType": "address",
          "name": "",
          "type": "address"
        }
      ],
      "stateMutability": "view",
      "type": "function"
    },
    {
      "inputs": [],
      "name": "uniswapV2Router",
      "outputs": [
        {
          "internalType": "contract IUniswapV2Router02",
          "name": "",
          "type": "address"
        }
      ],
      "stateMutability": "view",
      "type": "function"
    },
    {
      "inputs": [],
      "name": "unlock",
      "outputs": [],
      "stateMutability": "nonpayable",
      "type": "function"
    },
    {
      "stateMutability": "payable",
      "type": "receive"
    },
    {
      "inputs": [],
      "name": "name",
      "outputs": [
        {
          "internalType": "string",
          "name": "",
          "type": "string"
        }
      ],
      "stateMutability": "pure",
      "type": "function"
    },
    {
      "inputs": [],
      "name": "symbol",
      "outputs": [
        {
          "internalType": "string",
          "name": "",
          "type": "string"
        }
      ],
      "stateMutability": "pure",
      "type": "function"
    },
    {
      "inputs": [],
      "name": "decimals",
      "outputs": [
        {
          "internalType": "uint8",
          "name": "",
          "type": "uint8"
        }
      ],
      "stateMutability": "pure",
      "type": "function"
    },
    {
      "inputs": [],
      "name": "totalSupply",
      "outputs": [
        {
          "internalType": "uint256",
          "name": "",
          "type": "uint256"
        }
      ],
      "stateMutability": "pure",
      "type": "function"
    },
    {
      "inputs": [
        {
          "internalType": "address",
          "name": "account",
          "type": "address"
        }
      ],
      "name": "balanceOf",
      "outputs": [
        {
          "internalType": "uint256",
          "name": "",
          "type": "uint256"
        }
      ],
      "stateMutability": "view",
      "type": "function"
    },
    {
      "inputs": [
        {
          "internalType": "address",
          "name": "recipient",
          "type": "address"
        },
        {
          "internalType": "uint256",
          "name": "amount",
          "type": "uint256"
        }
      ],
      "name": "transfer",
      "outputs": [
        {
          "internalType": "bool",
          "name": "",
          "type": "bool"
        }
      ],
      "stateMutability": "nonpayable",
      "type": "function"
    },
    {
      "inputs": [
        {
          "internalType": "address",
          "name": "owner",
          "type": "address"
        },
        {
          "internalType": "address",
          "name": "spender",
          "type": "address"
        }
      ],
      "name": "allowance",
      "outputs": [
        {
          "internalType": "uint256",
          "name": "",
          "type": "uint256"
        }
      ],
      "stateMutability": "view",
      "type": "function"
    },
    {
      "inputs": [
        {
          "internalType": "address",
          "name": "spender",
          "type": "address"
        },
        {
          "internalType": "uint256",
          "name": "amount",
          "type": "uint256"
        }
      ],
      "name": "approve",
      "outputs": [
        {
          "internalType": "bool",
          "name": "",
          "type": "bool"
        }
      ],
      "stateMutability": "nonpayable",
      "type": "function"
    },
    {
      "inputs": [
        {
          "internalType": "address",
          "name": "sender",
          "type": "address"
        },
        {
          "internalType": "address",
          "name": "recipient",
          "type": "address"
        },
        {
          "internalType": "uint256",
          "name": "amount",
          "type": "uint256"
        }
      ],
      "name": "transferFrom",
      "outputs": [
        {
          "internalType": "bool",
          "name": "",
          "type": "bool"
        }
      ],
      "stateMutability": "nonpayable",
      "type": "function"
    },
    {
      "inputs": [
        {
          "internalType": "address",
          "name": "spender",
          "type": "address"
        },
        {
          "internalType": "uint256",
          "name": "addedValue",
          "type": "uint256"
        }
      ],
      "name": "increaseAllowance",
      "outputs": [
        {
          "internalType": "bool",
          "name": "",
          "type": "bool"
        }
      ],
      "stateMutability": "nonpayable",
      "type": "function"
    },
    {
      "inputs": [
        {
          "internalType": "address",
          "name": "spender",
          "type": "address"
        },
        {
          "internalType": "uint256",
          "name": "subtractedValue",
          "type": "uint256"
        }
      ],
      "name": "decreaseAllowance",
      "outputs": [
        {
          "internalType": "bool",
          "name": "",
          "type": "bool"
        }
      ],
      "stateMutability": "nonpayable",
      "type": "function"
    },
    {
      "inputs": [
        {
          "internalType": "address",
          "name": "account",
          "type": "address"
        }
      ],
      "name": "isExcludedFromReward",
      "outputs": [
        {
          "internalType": "bool",
          "name": "",
          "type": "bool"
        }
      ],
      "stateMutability": "view",
      "type": "function"
    },
    {
      "inputs": [],
      "name": "totalFees",
      "outputs": [
        {
          "internalType": "uint256",
          "name": "",
          "type": "uint256"
        }
      ],
      "stateMutability": "view",
      "type": "function"
    },
    {
      "inputs": [
        {
          "internalType": "uint256",
          "name": "tAmount",
          "type": "uint256"
        },
        {
          "internalType": "bool",
          "name": "deductTransferFee",
          "type": "bool"
        }
      ],
      "name": "reflectionFromToken",
      "outputs": [
        {
          "internalType": "uint256",
          "name": "",
          "type": "uint256"
        }
      ],
      "stateMutability": "view",
      "type": "function"
    },
    {
      "inputs": [
        {
          "internalType": "uint256",
          "name": "rAmount",
          "type": "uint256"
        }
      ],
      "name": "tokenFromReflection",
      "outputs": [
        {
          "internalType": "uint256",
          "name": "",
          "type": "uint256"
        }
      ],
      "stateMutability": "view",
      "type": "function"
    },
    {
      "inputs": [
        {
          "internalType": "address",
          "name": "account",
          "type": "address"
        }
      ],
      "name": "excludeFromReward",
      "outputs": [],
      "stateMutability": "nonpayable",
      "type": "function"
    },
    {
      "inputs": [
        {
          "internalType": "address",
          "name": "account",
          "type": "address"
        }
      ],
      "name": "includeInReward",
      "outputs": [],
      "stateMutability": "nonpayable",
      "type": "function"
    },
    {
      "inputs": [
        {
          "internalType": "address",
          "name": "account",
          "type": "address"
        }
      ],
      "name": "excludeFromFee",
      "outputs": [],
      "stateMutability": "nonpayable",
      "type": "function"
    },
    {
      "inputs": [
        {
          "internalType": "address",
          "name": "account",
          "type": "address"
        }
      ],
      "name": "includeInFee",
      "outputs": [],
      "stateMutability": "nonpayable",
      "type": "function"
    },
    {
      "inputs": [
        {
          "internalType": "uint256",
          "name": "tFee",
          "type": "uint256"
        }
      ],
      "name": "setReflectionFeePercent",
      "outputs": [],
      "stateMutability": "nonpayable",
      "type": "function"
    },
    {
      "inputs": [
        {
          "internalType": "uint256",
          "name": "marketingFee",
          "type": "uint256"
        }
      ],
      "name": "setMarketingFeePercent",
      "outputs": [],
      "stateMutability": "nonpayable",
      "type": "function"
    },
    {
      "inputs": [
        {
          "internalType": "uint256",
          "name": "burnFee",
          "type": "uint256"
        }
      ],
      "name": "setBurnFeePercent",
      "outputs": [],
      "stateMutability": "nonpayable",
      "type": "function"
    },
    {
      "inputs": [
        {
          "internalType": "address",
          "name": "account",
          "type": "address"
        }
      ],
      "name": "isExcludedFromFee",
      "outputs": [
        {
          "internalType": "bool",
          "name": "",
          "type": "bool"
        }
      ],
      "stateMutability": "view",
      "type": "function"
    }
  ],
  "bytecode": "0x6080604052737ce4d7946ede50125396864bb7f162908ac361ec600360006101000a81548173ffffffffffffffffffffffffffffffffffffffff021916908373ffffffffffffffffffffffffffffffffffffffff16021790555061dead600460006101000a81548173ffffffffffffffffffffffffffffffffffffffff021916908373ffffffffffffffffffffffffffffffffffffffff16021790555069d3c21bcecceda1000000600019620000b6919062000b6c565b600019620000c5919062000af3565b6005556103e869d3c21bcecceda1000000620000e2919062000abb565b600755603269d3c21bcecceda1000000620000fe919062000abb565b6008556001600955600954600a556001600b55600b54600c556001600d55600d54600e553480156200012f57600080fd5b506000620001426200075f60201b60201c565b9050806000806101000a81548173ffffffffffffffffffffffffffffffffffffffff021916908373ffffffffffffffffffffffffffffffffffffffff1602179055508073ffffffffffffffffffffffffffffffffffffffff16600073ffffffffffffffffffffffffffffffffffffffff167f8be0079c531659141344cd1fd0a4f28419497f9722a3daafe3b4186f6b6457e060405160405180910390a35060055460116000620001f76200075f60201b60201c565b73ffffffffffffffffffffffffffffffffffffffff1673ffffffffffffffffffffffffffffffffffffffff1681526020019081526020016000208190555060007305ff2b0db69458a0750badebc4f9e13add608c7f90508073ffffffffffffffffffffffffffffffffffffffff1663c45a01556040518163ffffffff1660e01b815260040160206040518083038186803b1580156200029557600080fd5b505afa158015620002aa573d6000803e3d6000fd5b505050506040513d601f19601f82011682018060405250810190620002d091906200097a565b73ffffffffffffffffffffffffffffffffffffffff1663c9c65396308373ffffffffffffffffffffffffffffffffffffffff1663ad5c46486040518163ffffffff1660e01b815260040160206040518083038186803b1580156200033357600080fd5b505afa15801562000348573d6000803e3d6000fd5b505050506040513d601f19601f820116820180604052508101906200036e91906200097a565b6040518363ffffffff1660e01b81526004016200038d92919062000a1c565b602060405180830381600087803b158015620003a857600080fd5b505af1158015620003bd573d6000803e3d6000fd5b505050506040513d601f19601f82011682018060405250810190620003e391906200097a565b601060006101000a81548173ffffffffffffffffffffffffffffffffffffffff021916908373ffffffffffffffffffffffffffffffffffffffff16021790555080600f60006101000a81548173ffffffffffffffffffffffffffffffffffffffff021916908373ffffffffffffffffffffffffffffffffffffffff1602179055506001601460006200047a6200076760201b60201c565b73ffffffffffffffffffffffffffffffffffffffff1673ffffffffffffffffffffffffffffffffffffffff16815260200190815260200160002060006101000a81548160ff0219169083151502179055506001601460003073ffffffffffffffffffffffffffffffffffffffff1673ffffffffffffffffffffffffffffffffffffffff16815260200190815260200160002060006101000a81548160ff021916908315150217905550600160146000600460009054906101000a900473ffffffffffffffffffffffffffffffffffffffff1673ffffffffffffffffffffffffffffffffffffffff1673ffffffffffffffffffffffffffffffffffffffff16815260200190815260200160002060006101000a81548160ff021916908315150217905550600160156000601060009054906101000a900473ffffffffffffffffffffffffffffffffffffffff1673ffffffffffffffffffffffffffffffffffffffff1673ffffffffffffffffffffffffffffffffffffffff16815260200190815260200160002060006101000a81548160ff021916908315150217905550600160156000600460009054906101000a900473ffffffffffffffffffffffffffffffffffffffff1673ffffffffffffffffffffffffffffffffffffffff1673ffffffffffffffffffffffffffffffffffffffff16815260200190815260200160002060006101000a81548160ff021916908315150217905550620006d7620006a56200076760201b60201c565b600f60009054906101000a900473ffffffffffffffffffffffffffffffffffffffff166000196200079060201b60201c565b620006e76200075f60201b60201c565b73ffffffffffffffffffffffffffffffffffffffff16600073ffffffffffffffffffffffffffffffffffffffff167fddf252ad1be2c89b69c2b068fc378daa952ba7f163c4a11628f55a4df523b3ef69d3c21bcecceda100000060405162000750919062000a8d565b60405180910390a35062000cbf565b600033905090565b60008060009054906101000a900473ffffffffffffffffffffffffffffffffffffffff16905090565b600073ffffffffffffffffffffffffffffffffffffffff168373ffffffffffffffffffffffffffffffffffffffff16141562000803576040517f08c379a0000000000000000000000000000000000000000000000000000000008152600401620007fa9062000a6b565b60405180910390fd5b600073ffffffffffffffffffffffffffffffffffffffff168273ffffffffffffffffffffffffffffffffffffffff16141562000876576040517f08c379a00000000000000000000000000000000000000000000000000000000081526004016200086d9062000a49565b60405180910390fd5b80601360008573ffffffffffffffffffffffffffffffffffffffff1673ffffffffffffffffffffffffffffffffffffffff16815260200190815260200160002060008473ffffffffffffffffffffffffffffffffffffffff1673ffffffffffffffffffffffffffffffffffffffff168152602001908152602001600020819055508173ffffffffffffffffffffffffffffffffffffffff168373ffffffffffffffffffffffffffffffffffffffff167f8c5be1e5ebec7d5bd14f71427d1e84f3dd0314c0f7b2291e5b200ac8c7c3b9258360405162000956919062000a8d565b60405180910390a3505050565b600081519050620009748162000ca5565b92915050565b60006020828403121562000993576200099262000c02565b5b6000620009a38482850162000963565b91505092915050565b620009b78162000b2e565b82525050565b6000620009cc60228362000aaa565b9150620009d98262000c07565b604082019050919050565b6000620009f360248362000aaa565b915062000a008262000c56565b604082019050919050565b62000a168162000b62565b82525050565b600060408201905062000a336000830185620009ac565b62000a426020830184620009ac565b9392505050565b6000602082019050818103600083015262000a6481620009bd565b9050919050565b6000602082019050818103600083015262000a8681620009e4565b9050919050565b600060208201905062000aa4600083018462000a0b565b92915050565b600082825260208201905092915050565b600062000ac88262000b62565b915062000ad58362000b62565b92508262000ae85762000ae762000bd3565b5b828204905092915050565b600062000b008262000b62565b915062000b0d8362000b62565b92508282101562000b235762000b2262000ba4565b5b828203905092915050565b600062000b3b8262000b42565b9050919050565b600073ffffffffffffffffffffffffffffffffffffffff82169050919050565b6000819050919050565b600062000b798262000b62565b915062000b868362000b62565b92508262000b995762000b9862000bd3565b5b828206905092915050565b7f4e487b7100000000000000000000000000000000000000000000000000000000600052601160045260246000fd5b7f4e487b7100000000000000000000000000000000000000000000000000000000600052601260045260246000fd5b600080fd5b7f45524332303a20617070726f766520746f20746865207a65726f20616464726560008201527f7373000000000000000000000000000000000000000000000000000000000000602082015250565b7f45524332303a20617070726f76652066726f6d20746865207a65726f2061646460008201527f7265737300000000000000000000000000000000000000000000000000000000602082015250565b62000cb08162000b2e565b811462000cbc57600080fd5b50565b614d1a8062000ccf6000396000f3fe6080604052600436106102345760003560e01c8063602bc62b1161012e578063a9059cbb116100ab578063dd62ed3e1161006f578063dd62ed3e14610874578063e96fada2146108b1578063ea2f0b37146108dc578063f2fde38b14610905578063fb1eb14b1461092e5761023b565b8063a9059cbb1461078f578063bbde77c1146107cc578063c0b0fda2146107f7578063cea2695814610822578063dd4670641461084b5761023b565b80638c0b5e22116100f25780638c0b5e22146106ba5780638da5cb5b146106e557806395d89b4114610710578063a457c2d71461073b578063a69df4b5146107785761023b565b8063602bc62b146105d357806370a08231146105fe578063715018a61461063b57806388f82020146106525780638bf2f9811461068f5761023b565b8063313ce567116101bc578063457c194c11610180578063457c194c146104ee57806349bd5a5e1461051757806352390c02146105425780635342acb41461056b578063557ed1ba146105a85761023b565b8063313ce567146103f75780633685d41914610422578063395093511461044b578063437823ec146104885780634549b039146104b15761023b565b806318160ddd1161020357806318160ddd146102fe5780631f7ede2b1461032957806322976e0d1461035257806323b872dd1461037d5780632d838119146103ba5761023b565b806306fdde0314610240578063095ea7b31461026b57806313114a9d146102a85780631694505e146102d35761023b565b3661023b57005b600080fd5b34801561024c57600080fd5b50610255610959565b604051610262919061423e565b60405180910390f35b34801561027757600080fd5b50610292600480360381019061028d9190613e46565b610996565b60405161029f9190614208565b60405180910390f35b3480156102b457600080fd5b506102bd6109b4565b6040516102ca91906144a0565b60405180910390f35b3480156102df57600080fd5b506102e86109be565b6040516102f59190614223565b60405180910390f35b34801561030a57600080fd5b506103136109e4565b60405161032091906144a0565b60405180910390f35b34801561033557600080fd5b50610350600480360381019061034b9190613e86565b6109f6565b005b34801561035e57600080fd5b50610367610a95565b60405161037491906144a0565b60405180910390f35b34801561038957600080fd5b506103a4600480360381019061039f9190613df3565b610a9b565b6040516103b19190614208565b60405180910390f35b3480156103c657600080fd5b506103e160048036038101906103dc9190613e86565b610b74565b6040516103ee91906144a0565b60405180910390f35b34801561040357600080fd5b5061040c610be2565b60405161041991906144bb565b60405180910390f35b34801561042e57600080fd5b5061044960048036038101906104449190613d86565b610beb565b005b34801561045757600080fd5b50610472600480360381019061046d9190613e46565b610f3a565b60405161047f9190614208565b60405180910390f35b34801561049457600080fd5b506104af60048036038101906104aa9190613d86565b610fed565b005b3480156104bd57600080fd5b506104d860048036038101906104d39190613eb3565b6110dd565b6040516104e591906144a0565b60405180910390f35b3480156104fa57600080fd5b5061051560048036038101906105109190613e86565b61116b565b005b34801561052357600080fd5b5061052c61120a565b60405161053991906141ed565b60405180910390f35b34801561054e57600080fd5b5061056960048036038101906105649190613d86565b611230565b005b34801561057757600080fd5b50610592600480360381019061058d9190613d86565b6114e4565b60405161059f9190614208565b60405180910390f35b3480156105b457600080fd5b506105bd61153a565b6040516105ca91906144a0565b60405180910390f35b3480156105df57600080fd5b506105e8611542565b6040516105f591906144a0565b60405180910390f35b34801561060a57600080fd5b5061062560048036038101906106209190613d86565b61154c565b60405161063291906144a0565b60405180910390f35b34801561064757600080fd5b50610650611637565b005b34801561065e57600080fd5b5061067960048036038101906106749190613d86565b61178a565b6040516106869190614208565b60405180910390f35b34801561069b57600080fd5b506106a46117e0565b6040516106b191906144a0565b60405180910390f35b3480156106c657600080fd5b506106cf6117e6565b6040516106dc91906144a0565b60405180910390f35b3480156106f157600080fd5b506106fa6117ec565b60405161070791906141ed565b60405180910390f35b34801561071c57600080fd5b50610725611815565b604051610732919061423e565b60405180910390f35b34801561074757600080fd5b50610762600480360381019061075d9190613e46565b611852565b60405161076f9190614208565b60405180910390f35b34801561078457600080fd5b5061078d61191f565b005b34801561079b57600080fd5b506107b660048036038101906107b19190613e46565b611af3565b6040516107c39190614208565b60405180910390f35b3480156107d857600080fd5b506107e1611b11565b6040516107ee91906144a0565b60405180910390f35b34801561080357600080fd5b5061080c611b17565b60405161081991906144a0565b60405180910390f35b34801561082e57600080fd5b5061084960048036038101906108449190613e86565b611b1d565b005b34801561085757600080fd5b50610872600480360381019061086d9190613e86565b611bbc565b005b34801561088057600080fd5b5061089b60048036038101906108969190613db3565b611d83565b6040516108a891906144a0565b60405180910390f35b3480156108bd57600080fd5b506108c6611e0a565b6040516108d391906141ed565b60405180910390f35b3480156108e857600080fd5b5061090360048036038101906108fe9190613d86565b611e30565b005b34801561091157600080fd5b5061092c60048036038101906109279190613d86565b611f20565b005b34801561093a57600080fd5b506109436120e2565b60405161095091906144a0565b60405180910390f35b60606040518060400160405280600981526020017f7377617076657273650000000000000000000000000000000000000000000000815250905090565b60006109aa6109a36120e8565b84846120f0565b6001905092915050565b6000600654905090565b600f60009054906101000a900473ffffffffffffffffffffffffffffffffffffffff1681565b600069d3c21bcecceda1000000905090565b6109fe6120e8565b73ffffffffffffffffffffffffffffffffffffffff1660008054906101000a900473ffffffffffffffffffffffffffffffffffffffff1673ffffffffffffffffffffffffffffffffffffffff1614610a8b576040517f08c379a0000000000000000000000000000000000000000000000000000000008152600401610a82906143c0565b60405180910390fd5b8060098190555050565b600b5481565b6000610aa88484846122bb565b610b6984610ab46120e8565b610b6485604051806060016040528060288152602001614c9860289139601360008b73ffffffffffffffffffffffffffffffffffffffff1673ffffffffffffffffffffffffffffffffffffffff1681526020019081526020016000206000610b1a6120e8565b73ffffffffffffffffffffffffffffffffffffffff1673ffffffffffffffffffffffffffffffffffffffff168152602001908152602001600020546125f39092919063ffffffff16565b6120f0565b600190509392505050565b6000600554821115610bbb576040517f08c379a0000000000000000000000000000000000000000000000000000000008152600401610bb290614280565b60405180910390fd5b6000610bc5612651565b9050610bda818461267c90919063ffffffff16565b915050919050565b60006009905090565b610bf36120e8565b73ffffffffffffffffffffffffffffffffffffffff1660008054906101000a900473ffffffffffffffffffffffffffffffffffffffff1673ffffffffffffffffffffffffffffffffffffffff1614610c80576040517f08c379a0000000000000000000000000000000000000000000000000000000008152600401610c77906143c0565b60405180910390fd5b601560008273ffffffffffffffffffffffffffffffffffffffff1673ffffffffffffffffffffffffffffffffffffffff16815260200190815260200160002060009054906101000a900460ff16610d0c576040517f08c379a0000000000000000000000000000000000000000000000000000000008152600401610d0390614300565b60405180910390fd5b60005b601680549050811015610f36578173ffffffffffffffffffffffffffffffffffffffff1660168281548110610d4757610d46614789565b5b9060005260206000200160009054906101000a900473ffffffffffffffffffffffffffffffffffffffff1673ffffffffffffffffffffffffffffffffffffffff161415610f235760166001601680549050610da291906145d3565b81548110610db357610db2614789565b5b9060005260206000200160009054906101000a900473ffffffffffffffffffffffffffffffffffffffff1660168281548110610df257610df1614789565b5b9060005260206000200160006101000a81548173ffffffffffffffffffffffffffffffffffffffff021916908373ffffffffffffffffffffffffffffffffffffffff1602179055506000601260008473ffffffffffffffffffffffffffffffffffffffff1673ffffffffffffffffffffffffffffffffffffffff168152602001908152602001600020819055506000601560008473ffffffffffffffffffffffffffffffffffffffff1673ffffffffffffffffffffffffffffffffffffffff16815260200190815260200160002060006101000a81548160ff0219169083151502179055506016805480610ee957610ee861475a565b5b6001900381819060005260206000200160006101000a81549073ffffffffffffffffffffffffffffffffffffffff02191690559055610f36565b8080610f2e906146b3565b915050610d0f565b5050565b6000610fe3610f476120e8565b84610fde8560136000610f586120e8565b73ffffffffffffffffffffffffffffffffffffffff1673ffffffffffffffffffffffffffffffffffffffff16815260200190815260200160002060008973ffffffffffffffffffffffffffffffffffffffff1673ffffffffffffffffffffffffffffffffffffffff168152602001908152602001600020546126d490919063ffffffff16565b6120f0565b6001905092915050565b610ff56120e8565b73ffffffffffffffffffffffffffffffffffffffff1660008054906101000a900473ffffffffffffffffffffffffffffffffffffffff1673ffffffffffffffffffffffffffffffffffffffff1614611082576040517f08c379a0000000000000000000000000000000000000000000000000000000008152600401611079906143c0565b60405180910390fd5b6001601460008373ffffffffffffffffffffffffffffffffffffffff1673ffffffffffffffffffffffffffffffffffffffff16815260200190815260200160002060006101000a81548160ff02191690831515021790555050565b600069d3c21bcecceda100000083111561112c576040517f08c379a000000000000000000000000000000000000000000000000000000000815260040161112390614360565b60405180910390fd5b8161114d57600061113c84612732565b505050505050905080915050611165565b600061115884612732565b5050505050915050809150505b92915050565b6111736120e8565b73ffffffffffffffffffffffffffffffffffffffff1660008054906101000a900473ffffffffffffffffffffffffffffffffffffffff1673ffffffffffffffffffffffffffffffffffffffff1614611200576040517f08c379a00000000000000000000000000000000000000000000000000000000081526004016111f7906143c0565b60405180910390fd5b80600b8190555050565b601060009054906101000a900473ffffffffffffffffffffffffffffffffffffffff1681565b6112386120e8565b73ffffffffffffffffffffffffffffffffffffffff1660008054906101000a900473ffffffffffffffffffffffffffffffffffffffff1673ffffffffffffffffffffffffffffffffffffffff16146112c5576040517f08c379a00000000000000000000000000000000000000000000000000000000081526004016112bc906143c0565b60405180910390fd5b601560008273ffffffffffffffffffffffffffffffffffffffff1673ffffffffffffffffffffffffffffffffffffffff16815260200190815260200160002060009054906101000a900460ff1615611352576040517f08c379a000000000000000000000000000000000000000000000000000000000815260040161134990614300565b60405180910390fd5b6000601160008373ffffffffffffffffffffffffffffffffffffffff1673ffffffffffffffffffffffffffffffffffffffff168152602001908152602001600020541115611426576113e2601160008373ffffffffffffffffffffffffffffffffffffffff1673ffffffffffffffffffffffffffffffffffffffff16815260200190815260200160002054610b74565b601260008373ffffffffffffffffffffffffffffffffffffffff1673ffffffffffffffffffffffffffffffffffffffff168152602001908152602001600020819055505b6001601560008373ffffffffffffffffffffffffffffffffffffffff1673ffffffffffffffffffffffffffffffffffffffff16815260200190815260200160002060006101000a81548160ff0219169083151502179055506016819080600181540180825580915050600190039060005260206000200160009091909190916101000a81548173ffffffffffffffffffffffffffffffffffffffff021916908373ffffffffffffffffffffffffffffffffffffffff16021790555050565b6000601460008373ffffffffffffffffffffffffffffffffffffffff1673ffffffffffffffffffffffffffffffffffffffff16815260200190815260200160002060009054906101000a900460ff169050919050565b600042905090565b6000600254905090565b6000601560008373ffffffffffffffffffffffffffffffffffffffff1673ffffffffffffffffffffffffffffffffffffffff16815260200190815260200160002060009054906101000a900460ff16156115e757601260008373ffffffffffffffffffffffffffffffffffffffff1673ffffffffffffffffffffffffffffffffffffffff168152602001908152602001600020549050611632565b61162f601160008473ffffffffffffffffffffffffffffffffffffffff1673ffffffffffffffffffffffffffffffffffffffff16815260200190815260200160002054610b74565b90505b919050565b61163f6120e8565b73ffffffffffffffffffffffffffffffffffffffff1660008054906101000a900473ffffffffffffffffffffffffffffffffffffffff1673ffffffffffffffffffffffffffffffffffffffff16146116cc576040517f08c379a00000000000000000000000000000000000000000000000000000000081526004016116c3906143c0565b60405180910390fd5b600073ffffffffffffffffffffffffffffffffffffffff1660008054906101000a900473ffffffffffffffffffffffffffffffffffffffff1673ffffffffffffffffffffffffffffffffffffffff167f8be0079c531659141344cd1fd0a4f28419497f9722a3daafe3b4186f6b6457e060405160405180910390a360008060006101000a81548173ffffffffffffffffffffffffffffffffffffffff021916908373ffffffffffffffffffffffffffffffffffffffff160217905550565b6000601560008373ffffffffffffffffffffffffffffffffffffffff1673ffffffffffffffffffffffffffffffffffffffff16815260200190815260200160002060009054906101000a900460ff169050919050565b60095481565b60075481565b60008060009054906101000a900473ffffffffffffffffffffffffffffffffffffffff16905090565b60606040518060400160405280600581526020017f5653574150000000000000000000000000000000000000000000000000000000815250905090565b600061191561185f6120e8565b8461191085604051806060016040528060258152602001614cc060259139601360006118896120e8565b73ffffffffffffffffffffffffffffffffffffffff1673ffffffffffffffffffffffffffffffffffffffff16815260200190815260200160002060008a73ffffffffffffffffffffffffffffffffffffffff1673ffffffffffffffffffffffffffffffffffffffff168152602001908152602001600020546125f39092919063ffffffff16565b6120f0565b6001905092915050565b3373ffffffffffffffffffffffffffffffffffffffff16600160009054906101000a900473ffffffffffffffffffffffffffffffffffffffff1673ffffffffffffffffffffffffffffffffffffffff16146119af576040517f08c379a00000000000000000000000000000000000000000000000000000000081526004016119a690614480565b60405180910390fd5b60025442116119f3576040517f08c379a00000000000000000000000000000000000000000000000000000000081526004016119ea90614460565b60405180910390fd5b600160009054906101000a900473ffffffffffffffffffffffffffffffffffffffff1673ffffffffffffffffffffffffffffffffffffffff1660008054906101000a900473ffffffffffffffffffffffffffffffffffffffff1673ffffffffffffffffffffffffffffffffffffffff167f8be0079c531659141344cd1fd0a4f28419497f9722a3daafe3b4186f6b6457e060405160405180910390a3600160009054906101000a900473ffffffffffffffffffffffffffffffffffffffff166000806101000a81548173ffffffffffffffffffffffffffffffffffffffff021916908373ffffffffffffffffffffffffffffffffffffffff160217905550565b6000611b07611b006120e8565b84846122bb565b6001905092915050565b60085481565b600d5481565b611b256120e8565b73ffffffffffffffffffffffffffffffffffffffff1660008054906101000a900473ffffffffffffffffffffffffffffffffffffffff1673ffffffffffffffffffffffffffffffffffffffff1614611bb2576040517f08c379a0000000000000000000000000000000000000000000000000000000008152600401611ba9906143c0565b60405180910390fd5b80600d8190555050565b611bc46120e8565b73ffffffffffffffffffffffffffffffffffffffff1660008054906101000a900473ffffffffffffffffffffffffffffffffffffffff1673ffffffffffffffffffffffffffffffffffffffff1614611c51576040517f08c379a0000000000000000000000000000000000000000000000000000000008152600401611c48906143c0565b60405180910390fd5b60008054906101000a900473ffffffffffffffffffffffffffffffffffffffff16600160006101000a81548173ffffffffffffffffffffffffffffffffffffffff021916908373ffffffffffffffffffffffffffffffffffffffff16021790555060008060006101000a81548173ffffffffffffffffffffffffffffffffffffffff021916908373ffffffffffffffffffffffffffffffffffffffff1602179055508042611cff91906144f2565b600281905550600073ffffffffffffffffffffffffffffffffffffffff1660008054906101000a900473ffffffffffffffffffffffffffffffffffffffff1673ffffffffffffffffffffffffffffffffffffffff167f8be0079c531659141344cd1fd0a4f28419497f9722a3daafe3b4186f6b6457e060405160405180910390a350565b6000601360008473ffffffffffffffffffffffffffffffffffffffff1673ffffffffffffffffffffffffffffffffffffffff16815260200190815260200160002060008373ffffffffffffffffffffffffffffffffffffffff1673ffffffffffffffffffffffffffffffffffffffff16815260200190815260200160002054905092915050565b600360009054906101000a900473ffffffffffffffffffffffffffffffffffffffff1681565b611e386120e8565b73ffffffffffffffffffffffffffffffffffffffff1660008054906101000a900473ffffffffffffffffffffffffffffffffffffffff1673ffffffffffffffffffffffffffffffffffffffff1614611ec5576040517f08c379a0000000000000000000000000000000000000000000000000000000008152600401611ebc906143c0565b60405180910390fd5b6000601460008373ffffffffffffffffffffffffffffffffffffffff1673ffffffffffffffffffffffffffffffffffffffff16815260200190815260200160002060006101000a81548160ff02191690831515021790555050565b611f286120e8565b73ffffffffffffffffffffffffffffffffffffffff1660008054906101000a900473ffffffffffffffffffffffffffffffffffffffff1673ffffffffffffffffffffffffffffffffffffffff1614611fb5576040517f08c379a0000000000000000000000000000000000000000000000000000000008152600401611fac906143c0565b60405180910390fd5b600073ffffffffffffffffffffffffffffffffffffffff168173ffffffffffffffffffffffffffffffffffffffff161415612025576040517f08c379a000000000000000000000000000000000000000000000000000000000815260040161201c906142a0565b60405180910390fd5b8073ffffffffffffffffffffffffffffffffffffffff1660008054906101000a900473ffffffffffffffffffffffffffffffffffffffff1673ffffffffffffffffffffffffffffffffffffffff167f8be0079c531659141344cd1fd0a4f28419497f9722a3daafe3b4186f6b6457e060405160405180910390a3806000806101000a81548173ffffffffffffffffffffffffffffffffffffffff021916908373ffffffffffffffffffffffffffffffffffffffff16021790555050565b60065481565b600033905090565b600073ffffffffffffffffffffffffffffffffffffffff168373ffffffffffffffffffffffffffffffffffffffff161415612160576040517f08c379a000000000000000000000000000000000000000000000000000000000815260040161215790614440565b60405180910390fd5b600073ffffffffffffffffffffffffffffffffffffffff168273ffffffffffffffffffffffffffffffffffffffff1614156121d0576040517f08c379a00000000000000000000000000000000000000000000000000000000081526004016121c7906142c0565b60405180910390fd5b80601360008573ffffffffffffffffffffffffffffffffffffffff1673ffffffffffffffffffffffffffffffffffffffff16815260200190815260200160002060008473ffffffffffffffffffffffffffffffffffffffff1673ffffffffffffffffffffffffffffffffffffffff168152602001908152602001600020819055508173ffffffffffffffffffffffffffffffffffffffff168373ffffffffffffffffffffffffffffffffffffffff167f8c5be1e5ebec7d5bd14f71427d1e84f3dd0314c0f7b2291e5b200ac8c7c3b925836040516122ae91906144a0565b60405180910390a3505050565b600073ffffffffffffffffffffffffffffffffffffffff168373ffffffffffffffffffffffffffffffffffffffff16141561232b576040517f08c379a000000000000000000000000000000000000000000000000000000000815260040161232290614420565b60405180910390fd5b600073ffffffffffffffffffffffffffffffffffffffff168273ffffffffffffffffffffffffffffffffffffffff16141561239b576040517f08c379a000000000000000000000000000000000000000000000000000000000815260040161239290614260565b60405180910390fd5b600460009054906101000a900473ffffffffffffffffffffffffffffffffffffffff1673ffffffffffffffffffffffffffffffffffffffff168373ffffffffffffffffffffffffffffffffffffffff16141561242c576040517f08c379a000000000000000000000000000000000000000000000000000000000815260040161242390614400565b60405180910390fd5b6000811161246f576040517f08c379a0000000000000000000000000000000000000000000000000000000008152600401612466906143e0565b60405180910390fd5b6124776117ec565b73ffffffffffffffffffffffffffffffffffffffff168373ffffffffffffffffffffffffffffffffffffffff16141580156124e557506124b56117ec565b73ffffffffffffffffffffffffffffffffffffffff168273ffffffffffffffffffffffffffffffffffffffff1614155b156125305760075481111561252f576040517f08c379a000000000000000000000000000000000000000000000000000000000815260040161252690614380565b60405180910390fd5b5b600060019050601460008573ffffffffffffffffffffffffffffffffffffffff1673ffffffffffffffffffffffffffffffffffffffff16815260200190815260200160002060009054906101000a900460ff16806125d75750601460008473ffffffffffffffffffffffffffffffffffffffff1673ffffffffffffffffffffffffffffffffffffffff16815260200190815260200160002060009054906101000a900460ff165b156125e157600090505b6125ed8484848461279a565b50505050565b600083831115829061263b576040517f08c379a0000000000000000000000000000000000000000000000000000000008152600401612632919061423e565b60405180910390fd5b50828461264891906145d3565b90509392505050565b600080600061265e612aab565b91509150612675818361267c90919063ffffffff16565b9250505090565b60008082116126c0576040517f08c379a00000000000000000000000000000000000000000000000000000000081526004016126b790614340565b60405180910390fd5b81836126cc9190614548565b905092915050565b60008082846126e391906144f2565b905083811015612728576040517f08c379a000000000000000000000000000000000000000000000000000000000815260040161271f906142e0565b60405180910390fd5b8091505092915050565b600080600080600080600080600080600061274c8c612d7e565b9350935093509350600080600061276d8f878787612768612651565b612dfd565b925092509250828282898989899d509d509d509d509d509d509d5050505050505050919395979092949650565b806127a8576127a7612eb1565b5b601560008573ffffffffffffffffffffffffffffffffffffffff1673ffffffffffffffffffffffffffffffffffffffff16815260200190815260200160002060009054906101000a900460ff16801561284b5750601560008473ffffffffffffffffffffffffffffffffffffffff1673ffffffffffffffffffffffffffffffffffffffff16815260200190815260200160002060009054906101000a900460ff16155b156128605761285b848484612f13565b612a97565b601560008573ffffffffffffffffffffffffffffffffffffffff1673ffffffffffffffffffffffffffffffffffffffff16815260200190815260200160002060009054906101000a900460ff161580156129035750601560008473ffffffffffffffffffffffffffffffffffffffff1673ffffffffffffffffffffffffffffffffffffffff16815260200190815260200160002060009054906101000a900460ff165b15612918576129138484846131c7565b612a96565b601560008573ffffffffffffffffffffffffffffffffffffffff1673ffffffffffffffffffffffffffffffffffffffff16815260200190815260200160002060009054906101000a900460ff161580156129bc5750601560008473ffffffffffffffffffffffffffffffffffffffff1673ffffffffffffffffffffffffffffffffffffffff16815260200190815260200160002060009054906101000a900460ff16155b156129d1576129cc84848461347b565b612a95565b601560008573ffffffffffffffffffffffffffffffffffffffff1673ffffffffffffffffffffffffffffffffffffffff16815260200190815260200160002060009054906101000a900460ff168015612a735750601560008473ffffffffffffffffffffffffffffffffffffffff1673ffffffffffffffffffffffffffffffffffffffff16815260200190815260200160002060009054906101000a900460ff165b15612a8857612a8384848461369a565b612a94565b612a9384848461347b565b5b5b5b5b80612aa557612aa46139e3565b5b50505050565b60008060006005549050600069d3c21bcecceda1000000905060005b601680549050811015612d3157826011600060168481548110612aed57612aec614789565b5b9060005260206000200160009054906101000a900473ffffffffffffffffffffffffffffffffffffffff1673ffffffffffffffffffffffffffffffffffffffff1673ffffffffffffffffffffffffffffffffffffffff168152602001908152602001600020541180612bdb5750816012600060168481548110612b7357612b72614789565b5b9060005260206000200160009054906101000a900473ffffffffffffffffffffffffffffffffffffffff1673ffffffffffffffffffffffffffffffffffffffff1673ffffffffffffffffffffffffffffffffffffffff16815260200190815260200160002054115b15612bfa5760055469d3c21bcecceda100000094509450505050612d7a565b612c8a6011600060168481548110612c1557612c14614789565b5b9060005260206000200160009054906101000a900473ffffffffffffffffffffffffffffffffffffffff1673ffffffffffffffffffffffffffffffffffffffff1673ffffffffffffffffffffffffffffffffffffffff1681526020019081526020016000205484613a0090919063ffffffff16565b9250612d1c6012600060168481548110612ca757612ca6614789565b5b9060005260206000200160009054906101000a900473ffffffffffffffffffffffffffffffffffffffff1673ffffffffffffffffffffffffffffffffffffffff1673ffffffffffffffffffffffffffffffffffffffff1681526020019081526020016000205483613a0090919063ffffffff16565b91508080612d29906146b3565b915050612ac7565b50612d5169d3c21bcecceda100000060055461267c90919063ffffffff16565b821015612d715760055469d3c21bcecceda1000000935093505050612d7a565b81819350935050505b9091565b6000806000806000612d8f86613a59565b90506000612d9c87613a8a565b90506000612da988613abb565b90506000612de482612dd685612dc8888e613a0090919063ffffffff16565b613a0090919063ffffffff16565b613a0090919063ffffffff16565b9050808484849750975097509750505050509193509193565b600080600080612e16858a613aec90919063ffffffff16565b90506000612e2d868a613aec90919063ffffffff16565b90506000612e44878a613aec90919063ffffffff16565b90506000612e5b888a613aec90919063ffffffff16565b90506000612e9682612e8885612e7a888a613a0090919063ffffffff16565b613a0090919063ffffffff16565b613a0090919063ffffffff16565b90508481859750975097505050505050955095509592505050565b6000600954148015612ec557506000600b54145b8015612ed357506000600d54145b15612edd57612f11565b600954600a81905550600b54600c81905550600d54600e8190555060006009819055506000600b819055506000600d819055505b565b6000806000806000806000612f2788612732565b9650965096509650965096509650612f8788601260008d73ffffffffffffffffffffffffffffffffffffffff1673ffffffffffffffffffffffffffffffffffffffff16815260200190815260200160002054613a0090919063ffffffff16565b601260008c73ffffffffffffffffffffffffffffffffffffffff1673ffffffffffffffffffffffffffffffffffffffff1681526020019081526020016000208190555061301c87601160008d73ffffffffffffffffffffffffffffffffffffffff1673ffffffffffffffffffffffffffffffffffffffff16815260200190815260200160002054613a0090919063ffffffff16565b601160008c73ffffffffffffffffffffffffffffffffffffffff1673ffffffffffffffffffffffffffffffffffffffff168152602001908152602001600020819055506130b186601160008c73ffffffffffffffffffffffffffffffffffffffff1673ffffffffffffffffffffffffffffffffffffffff168152602001908152602001600020546126d490919063ffffffff16565b601160008b73ffffffffffffffffffffffffffffffffffffffff1673ffffffffffffffffffffffffffffffffffffffff1681526020019081526020016000208190555061312082600360009054906101000a900473ffffffffffffffffffffffffffffffffffffffff16613b67565b61314c81600460009054906101000a900473ffffffffffffffffffffffffffffffffffffffff16613b67565b6131568584613d0d565b8873ffffffffffffffffffffffffffffffffffffffff168a73ffffffffffffffffffffffffffffffffffffffff167fddf252ad1be2c89b69c2b068fc378daa952ba7f163c4a11628f55a4df523b3ef866040516131b391906144a0565b60405180910390a350505050505050505050565b60008060008060008060006131db88612732565b965096509650965096509650965061323b87601160008d73ffffffffffffffffffffffffffffffffffffffff1673ffffffffffffffffffffffffffffffffffffffff16815260200190815260200160002054613a0090919063ffffffff16565b601160008c73ffffffffffffffffffffffffffffffffffffffff1673ffffffffffffffffffffffffffffffffffffffff168152602001908152602001600020819055506132d084601260008c73ffffffffffffffffffffffffffffffffffffffff1673ffffffffffffffffffffffffffffffffffffffff168152602001908152602001600020546126d490919063ffffffff16565b601260008b73ffffffffffffffffffffffffffffffffffffffff1673ffffffffffffffffffffffffffffffffffffffff1681526020019081526020016000208190555061336586601160008c73ffffffffffffffffffffffffffffffffffffffff1673ffffffffffffffffffffffffffffffffffffffff168152602001908152602001600020546126d490919063ffffffff16565b601160008b73ffffffffffffffffffffffffffffffffffffffff1673ffffffffffffffffffffffffffffffffffffffff168152602001908152602001600020819055506133d482600360009054906101000a900473ffffffffffffffffffffffffffffffffffffffff16613b67565b61340081600460009054906101000a900473ffffffffffffffffffffffffffffffffffffffff16613b67565b61340a8584613d0d565b8873ffffffffffffffffffffffffffffffffffffffff168a73ffffffffffffffffffffffffffffffffffffffff167fddf252ad1be2c89b69c2b068fc378daa952ba7f163c4a11628f55a4df523b3ef8660405161346791906144a0565b60405180910390a350505050505050505050565b600080600080600080600061348f88612732565b96509650965096509650965096506134ef87601160008d73ffffffffffffffffffffffffffffffffffffffff1673ffffffffffffffffffffffffffffffffffffffff16815260200190815260200160002054613a0090919063ffffffff16565b601160008c73ffffffffffffffffffffffffffffffffffffffff1673ffffffffffffffffffffffffffffffffffffffff1681526020019081526020016000208190555061358486601160008c73ffffffffffffffffffffffffffffffffffffffff1673ffffffffffffffffffffffffffffffffffffffff168152602001908152602001600020546126d490919063ffffffff16565b601160008b73ffffffffffffffffffffffffffffffffffffffff1673ffffffffffffffffffffffffffffffffffffffff168152602001908152602001600020819055506135f382600360009054906101000a900473ffffffffffffffffffffffffffffffffffffffff16613b67565b61361f81600460009054906101000a900473ffffffffffffffffffffffffffffffffffffffff16613b67565b6136298584613d0d565b8873ffffffffffffffffffffffffffffffffffffffff168a73ffffffffffffffffffffffffffffffffffffffff167fddf252ad1be2c89b69c2b068fc378daa952ba7f163c4a11628f55a4df523b3ef8660405161368691906144a0565b60405180910390a350505050505050505050565b60008060008060008060006136ae88612732565b965096509650965096509650965061370e88601260008d73ffffffffffffffffffffffffffffffffffffffff1673ffffffffffffffffffffffffffffffffffffffff16815260200190815260200160002054613a0090919063ffffffff16565b601260008c73ffffffffffffffffffffffffffffffffffffffff1673ffffffffffffffffffffffffffffffffffffffff168152602001908152602001600020819055506137a387601160008d73ffffffffffffffffffffffffffffffffffffffff1673ffffffffffffffffffffffffffffffffffffffff16815260200190815260200160002054613a0090919063ffffffff16565b601160008c73ffffffffffffffffffffffffffffffffffffffff1673ffffffffffffffffffffffffffffffffffffffff1681526020019081526020016000208190555061383884601260008c73ffffffffffffffffffffffffffffffffffffffff1673ffffffffffffffffffffffffffffffffffffffff168152602001908152602001600020546126d490919063ffffffff16565b601260008b73ffffffffffffffffffffffffffffffffffffffff1673ffffffffffffffffffffffffffffffffffffffff168152602001908152602001600020819055506138cd86601160008c73ffffffffffffffffffffffffffffffffffffffff1673ffffffffffffffffffffffffffffffffffffffff168152602001908152602001600020546126d490919063ffffffff16565b601160008b73ffffffffffffffffffffffffffffffffffffffff1673ffffffffffffffffffffffffffffffffffffffff1681526020019081526020016000208190555061393c82600360009054906101000a900473ffffffffffffffffffffffffffffffffffffffff16613b67565b61396881600460009054906101000a900473ffffffffffffffffffffffffffffffffffffffff16613b67565b6139728584613d0d565b8873ffffffffffffffffffffffffffffffffffffffff168a73ffffffffffffffffffffffffffffffffffffffff167fddf252ad1be2c89b69c2b068fc378daa952ba7f163c4a11628f55a4df523b3ef866040516139cf91906144a0565b60405180910390a350505050505050505050565b600a54600981905550600c54600b81905550600e54600d81905550565b600082821115613a45576040517f08c379a0000000000000000000000000000000000000000000000000000000008152600401613a3c90614320565b60405180910390fd5b8183613a5191906145d3565b905092915050565b6000613a836064613a7560095485613aec90919063ffffffff16565b61267c90919063ffffffff16565b9050919050565b6000613ab46064613aa6600b5485613aec90919063ffffffff16565b61267c90919063ffffffff16565b9050919050565b6000613ae56064613ad7600d5485613aec90919063ffffffff16565b61267c90919063ffffffff16565b9050919050565b600080831415613aff5760009050613b61565b60008284613b0d9190614579565b9050828482613b1c9190614548565b14613b5c576040517f08c379a0000000000000000000000000000000000000000000000000000000008152600401613b53906143a0565b60405180910390fd5b809150505b92915050565b6000613b71612651565b90506000613b888285613aec90919063ffffffff16565b9050613bdc81601160008673ffffffffffffffffffffffffffffffffffffffff1673ffffffffffffffffffffffffffffffffffffffff168152602001908152602001600020546126d490919063ffffffff16565b601160008573ffffffffffffffffffffffffffffffffffffffff1673ffffffffffffffffffffffffffffffffffffffff16815260200190815260200160002081905550601560008473ffffffffffffffffffffffffffffffffffffffff1673ffffffffffffffffffffffffffffffffffffffff16815260200190815260200160002060009054906101000a900460ff1615613d0757613cc381601260008673ffffffffffffffffffffffffffffffffffffffff1673ffffffffffffffffffffffffffffffffffffffff168152602001908152602001600020546126d490919063ffffffff16565b601260008573ffffffffffffffffffffffffffffffffffffffff1673ffffffffffffffffffffffffffffffffffffffff168152602001908152602001600020819055505b50505050565b613d2282600554613a0090919063ffffffff16565b600581905550613d3d816006546126d490919063ffffffff16565b6006819055505050565b600081359050613d5681614c52565b92915050565b600081359050613d6b81614c69565b92915050565b600081359050613d8081614c80565b92915050565b600060208284031215613d9c57613d9b6147b8565b5b6000613daa84828501613d47565b91505092915050565b60008060408385031215613dca57613dc96147b8565b5b6000613dd885828601613d47565b9250506020613de985828601613d47565b9150509250929050565b600080600060608486031215613e0c57613e0b6147b8565b5b6000613e1a86828701613d47565b9350506020613e2b86828701613d47565b9250506040613e3c86828701613d71565b9150509250925092565b60008060408385031215613e5d57613e5c6147b8565b5b6000613e6b85828601613d47565b9250506020613e7c85828601613d71565b9150509250929050565b600060208284031215613e9c57613e9b6147b8565b5b6000613eaa84828501613d71565b91505092915050565b60008060408385031215613eca57613ec96147b8565b5b6000613ed885828601613d71565b9250506020613ee985828601613d5c565b9150509250929050565b613efc81614607565b82525050565b613f0b81614619565b82525050565b613f1a8161465c565b82525050565b6000613f2b826144d6565b613f3581856144e1565b9350613f45818560208601614680565b613f4e816147bd565b840191505092915050565b6000613f666023836144e1565b9150613f71826147ce565b604082019050919050565b6000613f89602a836144e1565b9150613f948261481d565b604082019050919050565b6000613fac6026836144e1565b9150613fb78261486c565b604082019050919050565b6000613fcf6022836144e1565b9150613fda826148bb565b604082019050919050565b6000613ff2601b836144e1565b9150613ffd8261490a565b602082019050919050565b6000614015601b836144e1565b915061402082614933565b602082019050919050565b6000614038601e836144e1565b91506140438261495c565b602082019050919050565b600061405b601a836144e1565b915061406682614985565b602082019050919050565b600061407e601f836144e1565b9150614089826149ae565b602082019050919050565b60006140a16028836144e1565b91506140ac826149d7565b604082019050919050565b60006140c46021836144e1565b91506140cf82614a26565b604082019050919050565b60006140e76020836144e1565b91506140f282614a75565b602082019050919050565b600061410a6029836144e1565b915061411582614a9e565b604082019050919050565b600061412d6025836144e1565b915061413882614aed565b604082019050919050565b60006141506025836144e1565b915061415b82614b3c565b604082019050919050565b60006141736024836144e1565b915061417e82614b8b565b604082019050919050565b6000614196601f836144e1565b91506141a182614bda565b602082019050919050565b60006141b96023836144e1565b91506141c482614c03565b604082019050919050565b6141d881614645565b82525050565b6141e78161464f565b82525050565b60006020820190506142026000830184613ef3565b92915050565b600060208201905061421d6000830184613f02565b92915050565b60006020820190506142386000830184613f11565b92915050565b600060208201905081810360008301526142588184613f20565b905092915050565b6000602082019050818103600083015261427981613f59565b9050919050565b6000602082019050818103600083015261429981613f7c565b9050919050565b600060208201905081810360008301526142b981613f9f565b9050919050565b600060208201905081810360008301526142d981613fc2565b9050919050565b600060208201905081810360008301526142f981613fe5565b9050919050565b6000602082019050818103600083015261431981614008565b9050919050565b600060208201905081810360008301526143398161402b565b9050919050565b600060208201905081810360008301526143598161404e565b9050919050565b6000602082019050818103600083015261437981614071565b9050919050565b6000602082019050818103600083015261439981614094565b9050919050565b600060208201905081810360008301526143b9816140b7565b9050919050565b600060208201905081810360008301526143d9816140da565b9050919050565b600060208201905081810360008301526143f9816140fd565b9050919050565b6000602082019050818103600083015261441981614120565b9050919050565b6000602082019050818103600083015261443981614143565b9050919050565b6000602082019050818103600083015261445981614166565b9050919050565b6000602082019050818103600083015261447981614189565b9050919050565b60006020820190508181036000830152614499816141ac565b9050919050565b60006020820190506144b560008301846141cf565b92915050565b60006020820190506144d060008301846141de565b92915050565b600081519050919050565b600082825260208201905092915050565b60006144fd82614645565b915061450883614645565b9250827fffffffffffffffffffffffffffffffffffffffffffffffffffffffffffffffff0382111561453d5761453c6146fc565b5b828201905092915050565b600061455382614645565b915061455e83614645565b92508261456e5761456d61472b565b5b828204905092915050565b600061458482614645565b915061458f83614645565b9250817fffffffffffffffffffffffffffffffffffffffffffffffffffffffffffffffff04831182151516156145c8576145c76146fc565b5b828202905092915050565b60006145de82614645565b91506145e983614645565b9250828210156145fc576145fb6146fc565b5b828203905092915050565b600061461282614625565b9050919050565b60008115159050919050565b600073ffffffffffffffffffffffffffffffffffffffff82169050919050565b6000819050919050565b600060ff82169050919050565b60006146678261466e565b9050919050565b600061467982614625565b9050919050565b60005b8381101561469e578082015181840152602081019050614683565b838111156146ad576000848401525b50505050565b60006146be82614645565b91507fffffffffffffffffffffffffffffffffffffffffffffffffffffffffffffffff8214156146f1576146f06146fc565b5b600182019050919050565b7f4e487b7100000000000000000000000000000000000000000000000000000000600052601160045260246000fd5b7f4e487b7100000000000000000000000000000000000000000000000000000000600052601260045260246000fd5b7f4e487b7100000000000000000000000000000000000000000000000000000000600052603160045260246000fd5b7f4e487b7100000000000000000000000000000000000000000000000000000000600052603260045260246000fd5b600080fd5b6000601f19601f8301169050919050565b7f45524332303a207472616e7366657220746f20746865207a65726f206164647260008201527f6573730000000000000000000000000000000000000000000000000000000000602082015250565b7f416d6f756e74206d757374206265206c657373207468616e20746f74616c207260008201527f65666c656374696f6e7300000000000000000000000000000000000000000000602082015250565b7f4f776e61626c653a206e6577206f776e657220697320746865207a65726f206160008201527f6464726573730000000000000000000000000000000000000000000000000000602082015250565b7f45524332303a20617070726f766520746f20746865207a65726f20616464726560008201527f7373000000000000000000000000000000000000000000000000000000000000602082015250565b7f536166654d6174683a206164646974696f6e206f766572666c6f770000000000600082015250565b7f4163636f756e7420697320616c7265616479206578636c756465640000000000600082015250565b7f536166654d6174683a207375627472616374696f6e206f766572666c6f770000600082015250565b7f536166654d6174683a206469766973696f6e206279207a65726f000000000000600082015250565b7f416d6f756e74206d757374206265206c657373207468616e20737570706c7900600082015250565b7f5472616e7366657220616d6f756e74206578636565647320746865206d61785460008201527f78416d6f756e742e000000000000000000000000000000000000000000000000602082015250565b7f536166654d6174683a206d756c7469706c69636174696f6e206f766572666c6f60008201527f7700000000000000000000000000000000000000000000000000000000000000602082015250565b7f4f776e61626c653a2063616c6c6572206973206e6f7420746865206f776e6572600082015250565b7f5472616e7366657220616d6f756e74206d75737420626520677265617465722060008201527f7468616e207a65726f0000000000000000000000000000000000000000000000602082015250565b7f546f6b656e3a207472616e736665722066726f6d20746865206275726e20616460008201527f6472657373000000000000000000000000000000000000000000000000000000602082015250565b7f45524332303a207472616e736665722066726f6d20746865207a65726f20616460008201527f6472657373000000000000000000000000000000000000000000000000000000602082015250565b7f45524332303a20617070726f76652066726f6d20746865207a65726f2061646460008201527f7265737300000000000000000000000000000000000000000000000000000000602082015250565b7f436f6e7472616374206973206c6f636b656420756e74696c2037206461797300600082015250565b7f596f7520646f6e27742068617665207065726d697373696f6e20746f20756e6c60008201527f6f636b0000000000000000000000000000000000000000000000000000000000602082015250565b614c5b81614607565b8114614c6657600080fd5b50565b614c7281614619565b8114614c7d57600080fd5b50565b614c8981614645565b8114614c9457600080fd5b5056fe45524332303a207472616e7366657220616d6f756e74206578636565647320616c6c6f77616e636545524332303a2064656372656173656420616c6c6f77616e63652062656c6f77207a65726fa26469706673582212208255a2ae75dc69b0abad8111ec9629081e5f71783bf923daf60c419ee4f8522664736f6c63430008060033",
  "immutableReferences": {},
  "source": "/**\n *Submitted for verification at BscScan.com on 2021-11-25\n*/\n // SPDX-License-Identifier: MIT\n pragma solidity ^0.8.6;\n\n library SafeMath {\n \n    function tryAdd(uint256 a, uint256 b) internal pure returns (bool, uint256) {\n        uint256 c = a + b;\n        if (c < a) return (false, 0);\n        return (true, c);\n    }\n\n    function trySub(uint256 a, uint256 b) internal pure returns (bool, uint256) {\n        if (b > a) return (false, 0);\n        return (true, a - b);\n    }\n\n    function tryMul(uint256 a, uint256 b) internal pure returns (bool, uint256) {\n        if (a == 0) return (true, 0);\n        uint256 c = a * b;\n        if (c / a != b) return (false, 0);\n        return (true, c);\n    }\n\n\n    function tryDiv(uint256 a, uint256 b) internal pure returns (bool, uint256) {\n        if (b == 0) return (false, 0);\n        return (true, a / b);\n    }\n\n    function tryMod(uint256 a, uint256 b) internal pure returns (bool, uint256) {\n        if (b == 0) return (false, 0);\n        return (true, a % b);\n    }\n\n    function add(uint256 a, uint256 b) internal pure returns (uint256) {\n        uint256 c = a + b;\n        require(c >= a, \"SafeMath: addition overflow\");\n        return c;\n    }\n\n    function sub(uint256 a, uint256 b) internal pure returns (uint256) {\n        require(b <= a, \"SafeMath: subtraction overflow\");\n        return a - b;\n    }\n\n\n    function mul(uint256 a, uint256 b) internal pure returns (uint256) {\n        if (a == 0) return 0;\n        uint256 c = a * b;\n        require(c / a == b, \"SafeMath: multiplication overflow\");\n        return c;\n    }\n\n    function div(uint256 a, uint256 b) internal pure returns (uint256) {\n        require(b > 0, \"SafeMath: division by zero\");\n        return a / b;\n    }\n\n    function mod(uint256 a, uint256 b) internal pure returns (uint256) {\n        require(b > 0, \"SafeMath: modulo by zero\");\n        return a % b;\n    }\n\n\n    function sub(\n        uint256 a,\n        uint256 b,\n        string memory errorMessage\n    ) internal pure returns (uint256) {\n        require(b <= a, errorMessage);\n        return a - b;\n    }\n\n\n    function div(\n        uint256 a,\n        uint256 b,\n        string memory errorMessage\n    ) internal pure returns (uint256) {\n        require(b > 0, errorMessage);\n        return a / b;\n    }\n\n    function mod(\n        uint256 a,\n        uint256 b,\n        string memory errorMessage\n    ) internal pure returns (uint256) {\n        require(b > 0, errorMessage);\n        return a % b;\n    }\n}\n\n interface IERC20 {\n    function totalSupply() external view returns (uint256);\n    function balanceOf(address account) external view returns (uint256);\n    function transfer(address recipient, uint256 amount) external returns (bool);\n    function allowance(address owner, address spender) external view returns (uint256);\n    function approve(address spender, uint256 amount) external returns (bool);\n    function transferFrom(address sender, address recipient, uint256 amount) external returns (bool);\n    event Transfer(address indexed from, address indexed to, uint256 value);\n    event Approval(address indexed owner, address indexed spender, uint256 value);\n}\n  \ninterface IERC20Metadata is IERC20 {\n    function name() external view returns (string memory);\n    function symbol() external view returns (string memory);\n    function decimals() external view returns (uint8);\n}\n \nabstract contract Context {\n    function _msgSender() internal view virtual returns (address) {return msg.sender;}\n    function _msgData() internal view virtual returns (bytes calldata) {this; return msg.data;}\n}\n\nlibrary Address {\n    function isContract(address account) internal view returns (bool) {\n        uint256 size; assembly { size := extcodesize(account) } return size > 0;\n    }\n    function sendValue(address payable recipient, uint256 amount) internal {\n        require(address(this).balance >= amount, \"Address: insufficient balance\");(bool success, ) = recipient.call{ value: amount }(\"\");\n        require(success, \"Address: unable to send value, recipient may have reverted\");\n    }\n    function functionCall(address target, bytes memory data) internal returns (bytes memory) {\n        return functionCall(target, data, \"Address: low-level call failed\");\n\n    }\n    function functionCall(address target, bytes memory data, string memory errorMessage) internal returns (bytes memory) {\n        return functionCallWithValue(target, data, 0, errorMessage);\n\n    }\n    function functionCallWithValue(address target, bytes memory data, uint256 value) internal returns (bytes memory) {\n        return functionCallWithValue(target, data, value, \"Address: low-level call with value failed\");\n\n    }\n    function functionCallWithValue(address target, bytes memory data, uint256 value, string memory errorMessage) internal returns (bytes memory) {\n        require(address(this).balance >= value, \"Address: insufficient balance for call\");\n        require(isContract(target), \"Address: call to non-contract\");\n        (bool success, bytes memory returndata) = target.call{ value: value }(data);\n        return _verifyCallResult(success, returndata, errorMessage);\n    }\n    function functionStaticCall(address target, bytes memory data) internal view returns (bytes memory) {\n        return functionStaticCall(target, data, \"Address: low-level static call failed\");\n    }\n    function functionStaticCall(address target, bytes memory data, string memory errorMessage) internal view returns (bytes memory) {\n        require(isContract(target), \"Address: static call to non-contract\");\n        (bool success, bytes memory returndata) = target.staticcall(data);\n        return _verifyCallResult(success, returndata, errorMessage);\n    }\n    function functionDelegateCall(address target, bytes memory data) internal returns (bytes memory) {\n        return functionDelegateCall(target, data, \"Address: low-level delegate call failed\");\n    }\n    function functionDelegateCall(address target, bytes memory data, string memory errorMessage) internal returns (bytes memory) {\n        require(isContract(target), \"Address: delegate call to non-contract\");\n        (bool success, bytes memory returndata) = target.delegatecall(data);\n        return _verifyCallResult(success, returndata, errorMessage);\n    }\n    function _verifyCallResult(bool success, bytes memory returndata, string memory errorMessage) private pure returns(bytes memory) {\n        if (success) { return returndata; } else {\n            if (returndata.length > 0) {\n                assembly {\n                    let returndata_size := mload(returndata)\n                    revert(add(32, returndata), returndata_size)\n                }\n            } else {revert(errorMessage);}\n        }\n    }\n}\n \nabstract contract Ownable is Context {\n    address private _owner;\n    address private _previousOwner;\n    uint256 private _lockTime;\n\n    event OwnershipTransferred(address indexed previousOwner, address indexed newOwner);\n\n    constructor () {\n        address msgSender = _msgSender();\n        _owner = msgSender;\n        emit OwnershipTransferred(address(0), msgSender);\n    }\n\n    function owner() public view returns (address) {\n        return _owner;\n    }\n\n    modifier onlyOwner() {\n        require(_owner == _msgSender(), \"Ownable: caller is not the owner\");\n        _;\n    }\n\n    function renounceOwnership() public virtual onlyOwner {\n        emit OwnershipTransferred(_owner, address(0));\n        _owner = address(0);\n    }\n\n    function transferOwnership(address newOwner) public virtual onlyOwner {\n        require(newOwner != address(0), \"Ownable: new owner is the zero address\");\n        emit OwnershipTransferred(_owner, newOwner);\n        _owner = newOwner;\n    }\n\n    function getUnlockTime() public view returns (uint256) {\n        return _lockTime;\n    }\n\n    function getTime() public view returns (uint256) {\n        return block.timestamp;\n    }\n\n    function lock(uint256 time) public virtual onlyOwner {\n        _previousOwner = _owner;\n        _owner = address(0);\n        _lockTime = block.timestamp + time;\n        emit OwnershipTransferred(_owner, address(0));\n    }\n\n    function unlock() public virtual {\n        require(_previousOwner == msg.sender, \"You don't have permission to unlock\");\n        require(block.timestamp > _lockTime , \"Contract is locked until 7 days\");\n        emit OwnershipTransferred(_owner, _previousOwner);\n        _owner = _previousOwner;\n    }\n}\n \n interface IUniswapV2Factory {\n     event PairCreated(address indexed token0, address indexed token1, address pair, uint);\n \n     function feeTo() external view returns (address);\n     function feeToSetter() external view returns (address);\n \n     function getPair(address tokenA, address tokenB) external view returns (address pair);\n     function allPairs(uint) external view returns (address pair);\n     function allPairsLength() external view returns (uint);\n \n     function createPair(address tokenA, address tokenB) external returns (address pair);\n \n     function setFeeTo(address) external;\n     function setFeeToSetter(address) external;\n }\n interface IUniswapV2Pair {\n     event Approval(address indexed owner, address indexed spender, uint value);\n     event Transfer(address indexed from, address indexed to, uint value);\n \n     function name() external pure returns (string memory);\n     function symbol() external pure returns (string memory);\n     function decimals() external pure returns (uint8);\n     function totalSupply() external view returns (uint);\n     function balanceOf(address owner) external view returns (uint);\n     function allowance(address owner, address spender) external view returns (uint);\n \n     function approve(address spender, uint value) external returns (bool);\n     function transfer(address to, uint value) external returns (bool);\n     function transferFrom(address from, address to, uint value) external returns (bool);\n \n     function DOMAIN_SEPARATOR() external view returns (bytes32);\n     function PERMIT_TYPEHASH() external pure returns (bytes32);\n     function nonces(address owner) external view returns (uint);\n \n     function permit(address owner, address spender, uint value, uint deadline, uint8 v, bytes32 r, bytes32 s) external;\n \n     event Mint(address indexed sender, uint amount0, uint amount1);\n     event Burn(address indexed sender, uint amount0, uint amount1, address indexed to);\n     event Swap(\n         address indexed sender,\n         uint amount0In,\n         uint amount1In,\n         uint amount0Out,\n         uint amount1Out,\n         address indexed to\n     );\n     event Sync(uint112 reserve0, uint112 reserve1);\n \n     function MINIMUM_LIQUIDITY() external pure returns (uint);\n     function factory() external view returns (address);\n     function token0() external view returns (address);\n     function token1() external view returns (address);\n     function getReserves() external view returns (uint112 reserve0, uint112 reserve1, uint32 blockTimestampLast);\n     function price0CumulativeLast() external view returns (uint);\n     function price1CumulativeLast() external view returns (uint);\n     function kLast() external view returns (uint);\n \n     function mint(address to) external returns (uint liquidity);\n     function burn(address to) external returns (uint amount0, uint amount1);\n     function swap(uint amount0Out, uint amount1Out, address to, bytes calldata data) external;\n     function skim(address to) external;\n     function sync() external;\n \n     function initialize(address, address) external;\n }\n \n interface IUniswapV2Router01 {\n     function factory() external pure returns (address);\n     function WETH() external pure returns (address);\n \n     function addLiquidity(\n         address tokenA,\n         address tokenB,\n         uint amountADesired,\n         uint amountBDesired,\n         uint amountAMin,\n         uint amountBMin,\n         address to,\n         uint deadline\n     ) external returns (uint amountA, uint amountB, uint liquidity);\n     function addLiquidityETH(\n         address token,\n         uint amountTokenDesired,\n         uint amountTokenMin,\n         uint amountETHMin,\n         address to,\n         uint deadline\n     ) external payable returns (uint amountToken, uint amountETH, uint liquidity);\n     function removeLiquidity(\n         address tokenA,\n         address tokenB,\n         uint liquidity,\n         uint amountAMin,\n         uint amountBMin,\n         address to,\n         uint deadline\n     ) external returns (uint amountA, uint amountB);\n     function removeLiquidityETH(\n         address token,\n         uint liquidity,\n         uint amountTokenMin,\n         uint amountETHMin,\n         address to,\n         uint deadline\n     ) external returns (uint amountToken, uint amountETH);\n     function removeLiquidityWithPermit(\n         address tokenA,\n         address tokenB,\n         uint liquidity,\n         uint amountAMin,\n         uint amountBMin,\n         address to,\n         uint deadline,\n         bool approveMax, uint8 v, bytes32 r, bytes32 s\n     ) external returns (uint amountA, uint amountB);\n     function removeLiquidityETHWithPermit(\n         address token,\n         uint liquidity,\n         uint amountTokenMin,\n         uint amountETHMin,\n         address to,\n         uint deadline,\n         bool approveMax, uint8 v, bytes32 r, bytes32 s\n     ) external returns (uint amountToken, uint amountETH);\n     function swapExactTokensForTokens(\n         uint amountIn,\n         uint amountOutMin,\n         address[] calldata path,\n         address to,\n         uint deadline\n     ) external returns (uint[] memory amounts);\n     function swapTokensForExactTokens(\n         uint amountOut,\n         uint amountInMax,\n         address[] calldata path,\n         address to,\n         uint deadline\n     ) external returns (uint[] memory amounts);\n     function swapExactETHForTokens(uint amountOutMin, address[] calldata path, address to, uint deadline)\n         external\n         payable\n         returns (uint[] memory amounts);\n     function swapTokensForExactETH(uint amountOut, uint amountInMax, address[] calldata path, address to, uint deadline)\n         external\n         returns (uint[] memory amounts);\n     function swapExactTokensForETH(uint amountIn, uint amountOutMin, address[] calldata path, address to, uint deadline)\n         external\n         returns (uint[] memory amounts);\n     function swapETHForExactTokens(uint amountOut, address[] calldata path, address to, uint deadline)\n         external\n         payable\n         returns (uint[] memory amounts);\n \n     function quote(uint amountA, uint reserveA, uint reserveB) external pure returns (uint amountB);\n     function getAmountOut(uint amountIn, uint reserveIn, uint reserveOut) external pure returns (uint amountOut);\n     function getAmountIn(uint amountOut, uint reserveIn, uint reserveOut) external pure returns (uint amountIn);\n     function getAmountsOut(uint amountIn, address[] calldata path) external view returns (uint[] memory amounts);\n     function getAmountsIn(uint amountOut, address[] calldata path) external view returns (uint[] memory amounts);\n }\n interface IUniswapV2Router02 is IUniswapV2Router01 {\n     function removeLiquidityETHSupportingFeeOnTransferTokens(\n         address token,\n         uint liquidity,\n         uint amountTokenMin,\n         uint amountETHMin,\n         address to,\n         uint deadline\n     ) external returns (uint amountETH);\n     function removeLiquidityETHWithPermitSupportingFeeOnTransferTokens(\n         address token,\n         uint liquidity,\n         uint amountTokenMin,\n         uint amountETHMin,\n         address to,\n         uint deadline,\n         bool approveMax, uint8 v, bytes32 r, bytes32 s\n     ) external returns (uint amountETH);\n \n     function swapExactTokensForTokensSupportingFeeOnTransferTokens(\n         uint amountIn,\n         uint amountOutMin,\n         address[] calldata path,\n         address to,\n         uint deadline\n     ) external;\n     function swapExactETHForTokensSupportingFeeOnTransferTokens(\n         uint amountOutMin,\n         address[] calldata path,\n         address to,\n         uint deadline\n     ) external payable;\n     function swapExactTokensForETHSupportingFeeOnTransferTokens(\n         uint amountIn,\n         uint amountOutMin,\n         address[] calldata path,\n         address to,\n         uint deadline\n     ) external;\n }\n \n \n contract swapverse is IERC20Metadata, Context, Ownable {\n     using SafeMath for uint256;\n     using Address for address;\n\n     address public marketingFeeReceiver = 0x7cE4D7946EDE50125396864BB7f162908AC361Ec;\n     address internal deadAddress = 0x000000000000000000000000000000000000dEaD;\n    //  address public presaleAddress = address(0);//??????????\n\n     string constant _name = \"swapverse\";\n     string constant _symbol = \"VSWAP\";\n     uint8 constant _decimals = 9;\n\n     uint256 private constant MAX = ~uint256(0);\n     uint256 internal constant _tTotal = 1000000000 * 10**6 * 10**9;\n     uint256 internal _rTotal = (MAX - (MAX % _tTotal));\n\n     uint256 public _tFeeTotal;\n\n     uint256 public maxTxAmount = _tTotal / 1000; // 0.5% of the total supply\n     uint256 public maxWalletBalance = _tTotal / 50; // 2% of the total supply\n     uint256 public _tFee = 1;\n     uint256 internal _previoustFee = _tFee;\n     \n     uint256 public _marketingFee =1;\n     uint256 internal _previousmaketingFee = _marketingFee;\n\n     uint256 public _burnFee = 1;\n     uint256 internal _previousburnFee = _burnFee;\n\n     IUniswapV2Router02 public uniswapV2Router;\n     address public  uniswapV2Pair;\n\n     mapping (address => uint256) internal _rOwned;\n     mapping (address => uint256) internal _tOwned;\n     mapping (address => mapping (address => uint256)) internal _allowances;\n \n     mapping (address => bool) internal _isExcludedFromFee;\n     mapping (address => bool) internal _isExcluded;\n     address[] private _excluded;\n     \n     constructor () {\n         _rOwned[_msgSender()] = _rTotal;\n         \n         IUniswapV2Router02 _uniswapV2Router = IUniswapV2Router02(0x05fF2B0DB69458A0750badebc4f9e13aDd608C7F);\n\n         uniswapV2Pair = IUniswapV2Factory(_uniswapV2Router.factory()).createPair(address(this), _uniswapV2Router.WETH());\n \n         uniswapV2Router = _uniswapV2Router;\n\n         _isExcludedFromFee[owner()] = true;\n         _isExcludedFromFee[address(this)] = true;\n        //  _isExcludedFromFee[marketingFeeReceiver] = true;\n         _isExcludedFromFee[deadAddress] = true;\n\n         _isExcluded[uniswapV2Pair] = true;\n         _isExcluded[deadAddress] = true;\n         _approve(owner(), address(uniswapV2Router), ~uint256(0));\n         emit Transfer(address(0), _msgSender(), _tTotal);\n     }\n     function name() external pure override returns (string memory) {\n        return _name;\n    }\n \n    function symbol() external pure override returns (string memory) {\n        return _symbol;\n    }\n\n    function decimals() external pure override returns (uint8) {\n        return _decimals;\n    }\n \n     function totalSupply() external pure override returns (uint256) {\n         return _tTotal;\n     }\n \n     function balanceOf(address account) public view override returns (uint256) {\n         if (_isExcluded[account]) return _tOwned[account];\n         return tokenFromReflection(_rOwned[account]);\n     }\n \n     function transfer(address recipient, uint256 amount) public override returns (bool) {\n         _transfer(_msgSender(), recipient, amount);\n         return true;\n     }\n \n     function allowance(address owner, address spender) public view override returns (uint256) {\n         return _allowances[owner][spender];\n     }\n \n     function approve(address spender, uint256 amount) public override returns (bool) {\n         _approve(_msgSender(), spender, amount);\n         return true;\n     }\n \n     function transferFrom(address sender, address recipient, uint256 amount) public override returns (bool) {\n         _transfer(sender, recipient, amount);\n         _approve(sender, _msgSender(), _allowances[sender][_msgSender()].sub(amount, \"ERC20: transfer amount exceeds allowance\"));\n         return true;\n     }\n \n     function increaseAllowance(address spender, uint256 addedValue) public virtual returns (bool) {\n         _approve(_msgSender(), spender, _allowances[_msgSender()][spender].add(addedValue));\n         return true;\n     }\n     \n     \n     function decreaseAllowance(address spender, uint256 subtractedValue) public virtual returns (bool) {\n         _approve(_msgSender(), spender, _allowances[_msgSender()][spender].sub(subtractedValue, \"ERC20: decreased allowance below zero\"));\n         return true;\n     }\n \n     function isExcludedFromReward(address account) public view returns (bool) {\n         return _isExcluded[account];\n     }\n \n     function totalFees() public view returns (uint256) {\n         return _tFeeTotal;\n     }\n \n     function reflectionFromToken(uint256 tAmount, bool deductTransferFee) external view returns(uint256) {\n         require(tAmount <= _tTotal, \"Amount must be less than supply\");\n         if (!deductTransferFee) {\n             (uint256 rAmount,,,,,,) = _getValues(tAmount);\n             return rAmount;\n         } else {\n             (,uint256 rTransferAmount,,,,,) = _getValues(tAmount);\n             return rTransferAmount;\n         }\n     }\n \n     function tokenFromReflection(uint256 rAmount) public view returns(uint256) {\n         require(rAmount <= _rTotal, \"Amount must be less than total reflections\");\n         uint256 currentRate =  _getRate();\n         return rAmount.div(currentRate);\n     }\n \n     function excludeFromReward(address account) public onlyOwner() {\n         require(!_isExcluded[account], \"Account is already excluded\");\n         if(_rOwned[account] > 0) {\n             _tOwned[account] = tokenFromReflection(_rOwned[account]);\n         }\n         _isExcluded[account] = true;\n         _excluded.push(account);\n     }\n \n     function includeInReward(address account) external onlyOwner() {\n         require(_isExcluded[account], \"Account is already excluded\");\n         for (uint256 i = 0; i < _excluded.length; i++) {\n             if (_excluded[i] == account) {\n                 _excluded[i] = _excluded[_excluded.length - 1];\n                 _tOwned[account] = 0;\n                 _isExcluded[account] = false;\n                 _excluded.pop();\n                 break;\n             }\n         }\n     }\n    function _transferBothExcluded(address sender, address recipient, uint256 tAmount) private {\n        (uint256 rAmount, uint256 rTransferAmount, uint256 rFee, uint256 tTransferAmount, uint256 tFee, uint256 marketingFee, uint256 burnFee) = _getValues(tAmount);\n         _tOwned[sender] = _tOwned[sender].sub(tAmount);\n         _rOwned[sender] = _rOwned[sender].sub(rAmount);\n         _tOwned[recipient] = _tOwned[recipient].add(tTransferAmount);\n         _rOwned[recipient] = _rOwned[recipient].add(rTransferAmount);        \n         _takeFee(marketingFee, marketingFeeReceiver);\n         _takeFee(burnFee, deadAddress);\n         _reflectFee(rFee, tFee);\n         emit Transfer(sender, recipient, tTransferAmount);\n     }\n     \n    function excludeFromFee(address account) public onlyOwner() {\n         _isExcludedFromFee[account] = true;\n     }\n     \n     function includeInFee(address account) public onlyOwner() {\n         _isExcludedFromFee[account] = false;\n     }\n     \n     function setReflectionFeePercent(uint256 tFee) external onlyOwner() {\n         _tFee = tFee;\n     }\n     \n     function setMarketingFeePercent(uint256 marketingFee) external onlyOwner() {\n         _marketingFee = marketingFee;\n     }\n     function setBurnFeePercent(uint256 burnFee) external onlyOwner() {\n         _burnFee = burnFee;\n     }   \n    //  function setMaxTxPercent(uint256 maxTxPercent) external onlyOwner() {\n    //      _maxTxAmount = _tTotal.mul(maxTxPercent).div(\n    //          10**2\n    //      );\n    //  }   \n \n     function _reflectFee(uint256 rFee, uint256 tFee) internal {\n         _rTotal = _rTotal.sub(rFee);\n         _tFeeTotal = _tFeeTotal.add(tFee);\n     }\n \n     function _getValues(uint256 tAmount) internal view returns (uint256, uint256, uint256, uint256, uint256, uint256, uint256) {\n         (uint256 tTransferAmount, uint256 tFee, uint256 marketingFee, uint256 burnFee) = _getTValues(tAmount);\n         (uint256 rAmount, uint256 rTransferAmount, uint256 rFee) = _getRValues(tAmount, tFee, marketingFee, burnFee, _getRate());\n         return (rAmount, rTransferAmount, rFee, tTransferAmount, tFee, marketingFee, burnFee);\n     }\n \n     function _getTValues(uint256 tAmount) internal view returns (uint256, uint256, uint256, uint256) {\n         uint256 tFee = calculateReflectionFee(tAmount);\n         uint256 marketingFee = calculateMarketingFee(tAmount);\n         uint256 burnFee = calculateBurnFee(tAmount);\n         uint256 tTransferAmount = tAmount.sub(tFee).sub(marketingFee).sub(burnFee);\n         return (tTransferAmount, tFee, marketingFee, burnFee);\n     }\n \n     function _getRValues(uint256 tAmount, uint256 tFee, uint256 marketingFee, uint256 burnFee, uint256 currentRate) private pure returns (uint256, uint256, uint256) {\n         uint256 rAmount = tAmount.mul(currentRate);\n         uint256 rFee = tFee.mul(currentRate);\n         uint256 rmarketingFee = marketingFee.mul(currentRate);\n         uint256 rburnFee = burnFee.mul(currentRate);\n         uint256 rTransferAmount = rAmount.sub(rFee).sub(rmarketingFee).sub(rburnFee);\n         return (rAmount, rTransferAmount, rFee);\n     }\n \n     function _getRate() internal view returns(uint256) {\n         (uint256 rSupply, uint256 tSupply) = _getCurrentSupply();\n         return rSupply.div(tSupply);\n     }\n \n     function _getCurrentSupply() internal view returns(uint256, uint256) {\n         uint256 rSupply = _rTotal;\n         uint256 tSupply = _tTotal;      \n         for (uint256 i = 0; i < _excluded.length; i++) {\n             if (_rOwned[_excluded[i]] > rSupply || _tOwned[_excluded[i]] > tSupply) return (_rTotal, _tTotal);\n             rSupply = rSupply.sub(_rOwned[_excluded[i]]);\n             tSupply = tSupply.sub(_tOwned[_excluded[i]]);\n         }\n         if (rSupply < _rTotal.div(_tTotal)) return (_rTotal, _tTotal);\n         return (rSupply, tSupply);\n     }\n     \n     function calculateReflectionFee(uint256 _amount) internal view returns (uint256) {\n         return _amount.mul(_tFee).div(\n             10**2\n         );\n     }\n\n     function calculateMarketingFee(uint256 _amount) internal view returns (uint256) {\n         return _amount.mul(_marketingFee).div(\n             10**2\n         );\n     }\n\n     function calculateBurnFee(uint256 _amount) internal view returns (uint256) {\n         return _amount.mul(_burnFee).div(\n             10**2\n         );\n     }\n     \n     function removeAllFee() internal {\n         if(_tFee == 0 && _marketingFee == 0 &&  _burnFee == 0) return;\n         \n         _previoustFee = _tFee;\n         _previousmaketingFee = _marketingFee;\n         _previousburnFee = _burnFee;\n         \n         _tFee = 0;\n         _marketingFee = 0;\n         _burnFee = 0;\n     }\n     \n     function restoreAllFee() internal {\n        _tFee = _previoustFee;\n        _marketingFee = _previousmaketingFee;\n        _burnFee = _previousburnFee;\n     }\n     \n     function isExcludedFromFee(address account) public view returns(bool) {\n         return _isExcludedFromFee[account];\n     }\n \n     function _approve(address owner, address spender, uint256 amount) internal {\n         require(owner != address(0), \"ERC20: approve from the zero address\");\n         require(spender != address(0), \"ERC20: approve to the zero address\");\n \n         _allowances[owner][spender] = amount;\n         emit Approval(owner, spender, amount);\n     }\n \n     function _transfer(address from, address to, uint256 amount) internal {\n         require(from != address(0), \"ERC20: transfer from the zero address\");\n         require(to != address(0), \"ERC20: transfer to the zero address\");\n         require(from != address(deadAddress), \"Token: transfer from the burn address\");\n         require(amount > 0, \"Transfer amount must be greater than zero\");\n         if(from != owner() && to != owner())\n             require(amount <= maxTxAmount, \"Transfer amount exceeds the maxTxAmount.\");//??????\n         bool takeFee = true;\n         \n         if(_isExcludedFromFee[from] || _isExcludedFromFee[to]){\n             takeFee = false;\n         }\n         \n         _tokenTransfer(from,to,amount,takeFee);\n     }\n\n    function _takeFee(uint256 fee, address feeRecevier) internal {\n        uint256 currentRate =  _getRate();\n        uint256 rFee = fee.mul(currentRate);\n        _rOwned[feeRecevier] = _rOwned[feeRecevier].add(rFee);\n        if(_isExcluded[feeRecevier])\n            _tOwned[feeRecevier] = _tOwned[feeRecevier].add(rFee);\n\n     }\n\n     function _tokenTransfer(address sender, address recipient, uint256 amount,bool takeFee) private {\n         if(!takeFee)\n             removeAllFee();\n         \n         if (_isExcluded[sender] && !_isExcluded[recipient]) {\n             _transferFromExcluded(sender, recipient, amount);\n         } else if (!_isExcluded[sender] && _isExcluded[recipient]) {\n             _transferToExcluded(sender, recipient, amount);\n         } else if (!_isExcluded[sender] && !_isExcluded[recipient]) {\n             _transferStandard(sender, recipient, amount);\n         } else if (_isExcluded[sender] && _isExcluded[recipient]) {\n             _transferBothExcluded(sender, recipient, amount);\n         } else {\n             _transferStandard(sender, recipient, amount);\n         }\n         \n         if(!takeFee)\n             restoreAllFee();\n     }\n \n     function _transferStandard(address sender, address recipient, uint256 tAmount) private {\n         (uint256 rAmount, uint256 rTransferAmount, uint256 rFee, uint256 tTransferAmount, uint256 tFee, uint256 marketingFee, uint256 burnFee) = _getValues(tAmount);\n         _rOwned[sender] = _rOwned[sender].sub(rAmount);\n         _rOwned[recipient] = _rOwned[recipient].add(rTransferAmount);\n         _takeFee(marketingFee, marketingFeeReceiver);\n         _takeFee(burnFee, deadAddress);\n         _reflectFee(rFee, tFee);\n         emit Transfer(sender, recipient, tTransferAmount);\n     }\n \n     function _transferToExcluded(address sender, address recipient, uint256 tAmount) private {\n        (uint256 rAmount, uint256 rTransferAmount, uint256 rFee, uint256 tTransferAmount, uint256 tFee, uint256 marketingFee, uint256 burnFee) = _getValues(tAmount);\n         _rOwned[sender] = _rOwned[sender].sub(rAmount);\n         _tOwned[recipient] = _tOwned[recipient].add(tTransferAmount);\n         _rOwned[recipient] = _rOwned[recipient].add(rTransferAmount);           \n         _takeFee(marketingFee, marketingFeeReceiver);\n         _takeFee(burnFee, deadAddress);\n         _reflectFee(rFee, tFee);\n         emit Transfer(sender, recipient, tTransferAmount);\n     }\n \n     function _transferFromExcluded(address sender, address recipient, uint256 tAmount) private {\n        (uint256 rAmount, uint256 rTransferAmount, uint256 rFee, uint256 tTransferAmount, uint256 tFee, uint256 marketingFee, uint256 burnFee) = _getValues(tAmount);\n         _tOwned[sender] = _tOwned[sender].sub(tAmount);\n         _rOwned[sender] = _rOwned[sender].sub(rAmount);\n         _rOwned[recipient] = _rOwned[recipient].add(rTransferAmount);   \n         _takeFee(marketingFee, marketingFeeReceiver);\n         _takeFee(burnFee, deadAddress);\n         _reflectFee(rFee, tFee);\n         emit Transfer(sender, recipient, tTransferAmount);\n     }\n\n     receive() external payable {}\n }",
  "sourcePath": "/mnt/h/swarpverse/contracts/swapverse.sol",
  "compiler": {
    "name": "solc",
    "version": "0.8.6+commit.11564f7e.Emscripten.clang"
  },
  "schemaVersion": "3.4.3",
  "updatedAt": "2021-11-19T07:13:53.188Z",
  "devdoc": {
    "kind": "dev",
    "methods": {},
    "version": 1
  },
  "userdoc": {
    "kind": "user",
    "methods": {},
    "version": 1
  }
}